{
  "contractName": "FileSharing",
  "abi": [
    {
      "anonymous": false,
      "inputs": [
        {
          "indexed": true,
          "internalType": "address",
          "name": "uploader",
          "type": "address"
        },
        {
          "indexed": true,
          "internalType": "uint256",
          "name": "fileId",
          "type": "uint256"
        },
        {
          "indexed": false,
          "internalType": "string",
          "name": "fileName",
          "type": "string"
        },
        {
          "indexed": false,
          "internalType": "string",
          "name": "ipfsHash",
          "type": "string"
        }
      ],
      "name": "FileUploaded",
      "type": "event"
    },
    {
      "anonymous": false,
      "inputs": [
        {
          "indexed": true,
          "internalType": "address",
          "name": "user",
          "type": "address"
        }
      ],
      "name": "UserRegistered",
      "type": "event"
    },
    {
      "inputs": [],
      "name": "fileCount",
      "outputs": [
        {
          "internalType": "uint256",
          "name": "",
          "type": "uint256"
        }
      ],
      "stateMutability": "view",
      "type": "function",
      "constant": true
    },
    {
      "inputs": [
        {
          "internalType": "uint256",
          "name": "",
          "type": "uint256"
        }
      ],
      "name": "files",
      "outputs": [
        {
          "internalType": "string",
          "name": "name",
          "type": "string"
        },
        {
          "internalType": "string",
          "name": "hash",
          "type": "string"
        },
        {
          "internalType": "address",
          "name": "uploader",
          "type": "address"
        },
        {
          "internalType": "uint256",
          "name": "timestamp",
          "type": "uint256"
        }
      ],
      "stateMutability": "view",
      "type": "function",
      "constant": true
    },
    {
      "inputs": [
        {
          "internalType": "address",
          "name": "",
          "type": "address"
        }
      ],
      "name": "registeredUsers",
      "outputs": [
        {
          "internalType": "bool",
          "name": "",
          "type": "bool"
        }
      ],
      "stateMutability": "view",
      "type": "function",
      "constant": true
    },
    {
      "inputs": [],
      "name": "signup",
      "outputs": [],
      "stateMutability": "nonpayable",
      "type": "function"
    },
    {
      "inputs": [
        {
          "internalType": "string",
          "name": "_name",
          "type": "string"
        },
        {
          "internalType": "string",
          "name": "_hash",
          "type": "string"
        }
      ],
      "name": "uploadFile",
      "outputs": [],
      "stateMutability": "nonpayable",
      "type": "function"
    },
    {
      "inputs": [
        {
          "internalType": "uint256",
          "name": "_fileId",
          "type": "uint256"
        }
      ],
      "name": "getFile",
      "outputs": [
        {
          "components": [
            {
              "internalType": "string",
              "name": "name",
              "type": "string"
            },
            {
              "internalType": "string",
              "name": "hash",
              "type": "string"
            },
            {
              "internalType": "address",
              "name": "uploader",
              "type": "address"
            },
            {
              "internalType": "uint256",
              "name": "timestamp",
              "type": "uint256"
            }
          ],
          "internalType": "struct FileSharing.File",
          "name": "",
          "type": "tuple"
        }
      ],
      "stateMutability": "view",
      "type": "function",
      "constant": true
    },
    {
      "inputs": [
        {
          "internalType": "address",
          "name": "_uploader",
          "type": "address"
        }
      ],
      "name": "getFilesByUploader",
      "outputs": [
        {
          "components": [
            {
              "internalType": "string",
              "name": "name",
              "type": "string"
            },
            {
              "internalType": "string",
              "name": "hash",
              "type": "string"
            },
            {
              "internalType": "address",
              "name": "uploader",
              "type": "address"
            },
            {
              "internalType": "uint256",
              "name": "timestamp",
              "type": "uint256"
            }
          ],
          "internalType": "struct FileSharing.File[]",
          "name": "",
          "type": "tuple[]"
        }
      ],
      "stateMutability": "view",
      "type": "function",
      "constant": true
    }
  ],
  "bytecode": "0x60806040525f600255348015610013575f80fd5b50611668806100215f395ff3fe608060405234801561000f575f80fd5b506004361061007b575f3560e01c80636c338886116100595780636c338886146100fd578063996d50bf1461012d578063b7bc0f7314610149578063f4c714b4146101535761007b565b80630e50cee51461007f5780632bfda313146100af57806343953519146100df575b5f80fd5b61009960048036038101906100949190610bbc565b610186565b6040516100a69190610c01565b60405180910390f35b6100c960048036038101906100c49190610c4d565b6101a2565b6040516100d69190610d87565b60405180910390f35b6100e7610423565b6040516100f49190610db6565b60405180910390f35b61011760048036038101906101129190610bbc565b610429565b6040516101249190610ef1565b60405180910390f35b6101476004803603810190610142919061103d565b6106df565b005b61015161089c565b005b61016d60048036038101906101689190610c4d565b6109be565b60405161017d949392919061110a565b60405180910390f35b5f602052805f5260405f205f915054906101000a900460ff1681565b6101aa610b15565b5f803373ffffffffffffffffffffffffffffffffffffffff1673ffffffffffffffffffffffffffffffffffffffff1681526020019081526020015f205f9054906101000a900460ff16610232576040517f08c379a0000000000000000000000000000000000000000000000000000000008152600401610229906111a5565b60405180910390fd5b5f8211801561024357506002548211155b610282576040517f08c379a00000000000000000000000000000000000000000000000000000000081526004016102799061120d565b60405180910390fd5b60015f8381526020019081526020015f206040518060800160405290815f820180546102ad90611258565b80601f01602080910402602001604051908101604052809291908181526020018280546102d990611258565b80156103245780601f106102fb57610100808354040283529160200191610324565b820191905f5260205f20905b81548152906001019060200180831161030757829003601f168201915b5050505050815260200160018201805461033d90611258565b80601f016020809104026020016040519081016040528092919081815260200182805461036990611258565b80156103b45780601f1061038b576101008083540402835291602001916103b4565b820191905f5260205f20905b81548152906001019060200180831161039757829003601f168201915b50505050508152602001600282015f9054906101000a900473ffffffffffffffffffffffffffffffffffffffff1673ffffffffffffffffffffffffffffffffffffffff1673ffffffffffffffffffffffffffffffffffffffff1681526020016003820154815250509050919050565b60025481565b60605f60025467ffffffffffffffff81111561044857610447610f19565b5b60405190808252806020026020018201604052801561048157816020015b61046e610b15565b8152602001906001900390816104665790505b5090505f80600190505b60025481116106d4578473ffffffffffffffffffffffffffffffffffffffff1660015f8381526020019081526020015f206002015f9054906101000a900473ffffffffffffffffffffffffffffffffffffffff1673ffffffffffffffffffffffffffffffffffffffff16036106c15760015f8281526020019081526020015f206040518060800160405290815f8201805461052590611258565b80601f016020809104026020016040519081016040528092919081815260200182805461055190611258565b801561059c5780601f106105735761010080835404028352916020019161059c565b820191905f5260205f20905b81548152906001019060200180831161057f57829003601f168201915b505050505081526020016001820180546105b590611258565b80601f01602080910402602001604051908101604052809291908181526020018280546105e190611258565b801561062c5780601f106106035761010080835404028352916020019161062c565b820191905f5260205f20905b81548152906001019060200180831161060f57829003601f168201915b50505050508152602001600282015f9054906101000a900473ffffffffffffffffffffffffffffffffffffffff1673ffffffffffffffffffffffffffffffffffffffff1673ffffffffffffffffffffffffffffffffffffffff1681526020016003820154815250508383815181106106a7576106a6611288565b5b602002602001018190525081806106bd906112e2565b9250505b80806106cc906112e2565b91505061048b565b508192505050919050565b5f803373ffffffffffffffffffffffffffffffffffffffff1673ffffffffffffffffffffffffffffffffffffffff1681526020019081526020015f205f9054906101000a900460ff16610767576040517f08c379a000000000000000000000000000000000000000000000000000000000815260040161075e906111a5565b60405180910390fd5b60025f815480929190610779906112e2565b919050555060405180608001604052808381526020018281526020013373ffffffffffffffffffffffffffffffffffffffff1681526020014281525060015f60025481526020019081526020015f205f820151815f0190816107db91906114c6565b5060208201518160010190816107f191906114c6565b506040820151816002015f6101000a81548173ffffffffffffffffffffffffffffffffffffffff021916908373ffffffffffffffffffffffffffffffffffffffff160217905550606082015181600301559050506002543373ffffffffffffffffffffffffffffffffffffffff167f931a47dbf66bf525c4f6017aa076b195a2dbc0f5ce1038738322cf763ecc02328484604051610890929190611595565b60405180910390a35050565b5f803373ffffffffffffffffffffffffffffffffffffffff1673ffffffffffffffffffffffffffffffffffffffff1681526020019081526020015f205f9054906101000a900460ff1615610925576040517f08c379a000000000000000000000000000000000000000000000000000000000815260040161091c90611614565b60405180910390fd5b60015f803373ffffffffffffffffffffffffffffffffffffffff1673ffffffffffffffffffffffffffffffffffffffff1681526020019081526020015f205f6101000a81548160ff0219169083151502179055503373ffffffffffffffffffffffffffffffffffffffff167f54db7a5cb4735e1aac1f53db512d3390390bb6637bd30ad4bf9fc98667d9b9b960405160405180910390a2565b6001602052805f5260405f205f91509050805f0180546109dd90611258565b80601f0160208091040260200160405190810160405280929190818152602001828054610a0990611258565b8015610a545780601f10610a2b57610100808354040283529160200191610a54565b820191905f5260205f20905b815481529060010190602001808311610a3757829003601f168201915b505050505090806001018054610a6990611258565b80601f0160208091040260200160405190810160405280929190818152602001828054610a9590611258565b8015610ae05780601f10610ab757610100808354040283529160200191610ae0565b820191905f5260205f20905b815481529060010190602001808311610ac357829003601f168201915b505050505090806002015f9054906101000a900473ffffffffffffffffffffffffffffffffffffffff16908060030154905084565b604051806080016040528060608152602001606081526020015f73ffffffffffffffffffffffffffffffffffffffff1681526020015f81525090565b5f604051905090565b5f80fd5b5f80fd5b5f73ffffffffffffffffffffffffffffffffffffffff82169050919050565b5f610b8b82610b62565b9050919050565b610b9b81610b81565b8114610ba5575f80fd5b50565b5f81359050610bb681610b92565b92915050565b5f60208284031215610bd157610bd0610b5a565b5b5f610bde84828501610ba8565b91505092915050565b5f8115159050919050565b610bfb81610be7565b82525050565b5f602082019050610c145f830184610bf2565b92915050565b5f819050919050565b610c2c81610c1a565b8114610c36575f80fd5b50565b5f81359050610c4781610c23565b92915050565b5f60208284031215610c6257610c61610b5a565b5b5f610c6f84828501610c39565b91505092915050565b5f81519050919050565b5f82825260208201905092915050565b5f5b83811015610caf578082015181840152602081019050610c94565b5f8484015250505050565b5f601f19601f8301169050919050565b5f610cd482610c78565b610cde8185610c82565b9350610cee818560208601610c92565b610cf781610cba565b840191505092915050565b610d0b81610b81565b82525050565b610d1a81610c1a565b82525050565b5f608083015f8301518482035f860152610d3a8282610cca565b91505060208301518482036020860152610d548282610cca565b9150506040830151610d696040860182610d02565b506060830151610d7c6060860182610d11565b508091505092915050565b5f6020820190508181035f830152610d9f8184610d20565b905092915050565b610db081610c1a565b82525050565b5f602082019050610dc95f830184610da7565b92915050565b5f81519050919050565b5f82825260208201905092915050565b5f819050602082019050919050565b5f608083015f8301518482035f860152610e128282610cca565b91505060208301518482036020860152610e2c8282610cca565b9150506040830151610e416040860182610d02565b506060830151610e546060860182610d11565b508091505092915050565b5f610e6a8383610df8565b905092915050565b5f602082019050919050565b5f610e8882610dcf565b610e928185610dd9565b935083602082028501610ea485610de9565b805f5b85811015610edf5784840389528151610ec08582610e5f565b9450610ecb83610e72565b925060208a01995050600181019050610ea7565b50829750879550505050505092915050565b5f6020820190508181035f830152610f098184610e7e565b905092915050565b5f80fd5b5f80fd5b7f4e487b71000000000000000000000000000000000000000000000000000000005f52604160045260245ffd5b610f4f82610cba565b810181811067ffffffffffffffff82111715610f6e57610f6d610f19565b5b80604052505050565b5f610f80610b51565b9050610f8c8282610f46565b919050565b5f67ffffffffffffffff821115610fab57610faa610f19565b5b610fb482610cba565b9050602081019050919050565b828183375f83830152505050565b5f610fe1610fdc84610f91565b610f77565b905082815260208101848484011115610ffd57610ffc610f15565b5b611008848285610fc1565b509392505050565b5f82601f83011261102457611023610f11565b5b8135611034848260208601610fcf565b91505092915050565b5f806040838503121561105357611052610b5a565b5b5f83013567ffffffffffffffff8111156110705761106f610b5e565b5b61107c85828601611010565b925050602083013567ffffffffffffffff81111561109d5761109c610b5e565b5b6110a985828601611010565b9150509250929050565b5f82825260208201905092915050565b5f6110cd82610c78565b6110d781856110b3565b93506110e7818560208601610c92565b6110f081610cba565b840191505092915050565b61110481610b81565b82525050565b5f6080820190508181035f83015261112281876110c3565b9050818103602083015261113681866110c3565b905061114560408301856110fb565b6111526060830184610da7565b95945050505050565b7f55736572206e6f742072656769737465726564000000000000000000000000005f82015250565b5f61118f6013836110b3565b915061119a8261115b565b602082019050919050565b5f6020820190508181035f8301526111bc81611183565b9050919050565b7f496e76616c69642066696c6520494400000000000000000000000000000000005f82015250565b5f6111f7600f836110b3565b9150611202826111c3565b602082019050919050565b5f6020820190508181035f830152611224816111eb565b9050919050565b7f4e487b71000000000000000000000000000000000000000000000000000000005f52602260045260245ffd5b5f600282049050600182168061126f57607f821691505b6020821081036112825761128161122b565b5b50919050565b7f4e487b71000000000000000000000000000000000000000000000000000000005f52603260045260245ffd5b7f4e487b71000000000000000000000000000000000000000000000000000000005f52601160045260245ffd5b5f6112ec82610c1a565b91507fffffffffffffffffffffffffffffffffffffffffffffffffffffffffffffffff820361131e5761131d6112b5565b5b600182019050919050565b5f819050815f5260205f209050919050565b5f6020601f8301049050919050565b5f82821b905092915050565b5f600883026113857fffffffffffffffffffffffffffffffffffffffffffffffffffffffffffffffff8261134a565b61138f868361134a565b95508019841693508086168417925050509392505050565b5f819050919050565b5f6113ca6113c56113c084610c1a565b6113a7565b610c1a565b9050919050565b5f819050919050565b6113e3836113b0565b6113f76113ef826113d1565b848454611356565b825550505050565b5f90565b61140b6113ff565b6114168184846113da565b505050565b5b818110156114395761142e5f82611403565b60018101905061141c565b5050565b601f82111561147e5761144f81611329565b6114588461133b565b81016020851015611467578190505b61147b6114738561133b565b83018261141b565b50505b505050565b5f82821c905092915050565b5f61149e5f1984600802611483565b1980831691505092915050565b5f6114b6838361148f565b9150826002028217905092915050565b6114cf82610c78565b67ffffffffffffffff8111156114e8576114e7610f19565b5b6114f28254611258565b6114fd82828561143d565b5f60209050601f83116001811461152e575f841561151c578287015190505b61152685826114ab565b86555061158d565b601f19841661153c86611329565b5f5b828110156115635784890151825560018201915060208501945060208101905061153e565b86831015611580578489015161157c601f89168261148f565b8355505b6001600288020188555050505b505050505050565b5f6040820190508181035f8301526115ad81856110c3565b905081810360208301526115c181846110c3565b90509392505050565b7f5573657220616c726561647920726567697374657265640000000000000000005f82015250565b5f6115fe6017836110b3565b9150611609826115ca565b602082019050919050565b5f6020820190508181035f83015261162b816115f2565b905091905056fea2646970667358221220e6cdd9f454f5d9bbbf5ba924cd95e8a8c3bde1548dc93caf0572d9a0a29e95d164736f6c63430008150033",
  "immutableReferences": {},
  "source": "// SPDX-License-Identifier: MIT\r\npragma solidity ^0.8.0;\r\n\r\ncontract FileSharing {\r\n    struct File {\r\n        string name;\r\n        string hash; // IPFS hash\r\n        address uploader;\r\n        uint256 timestamp;\r\n    }\r\n\r\n    mapping(address => bool) public registeredUsers;\r\n    mapping(uint256 => File) public files;\r\n    uint256 public fileCount = 0;\r\n\r\n    event UserRegistered(address indexed user);\r\n    event FileUploaded(\r\n        address indexed uploader,\r\n        uint256 indexed fileId,\r\n        string fileName,\r\n        string ipfsHash\r\n    );\r\n\r\n    // Register a user\r\n    function signup() public {\r\n        require(!registeredUsers[msg.sender], \"User already registered\");\r\n        registeredUsers[msg.sender] = true;\r\n        emit UserRegistered(msg.sender);\r\n    }\r\n\r\n    // Upload a file to IPFS and record its metadata in the smart contract\r\n    function uploadFile(string memory _name, string memory _hash) public {\r\n        require(registeredUsers[msg.sender], \"User not registered\");\r\n        fileCount++;\r\n        files[fileCount] = File(_name, _hash, msg.sender, block.timestamp);\r\n        emit FileUploaded(msg.sender, fileCount, _name, _hash);\r\n    }\r\n\r\n    // Get file information by file ID\r\n    function getFile(uint256 _fileId) public view returns (File memory) {\r\n        require(registeredUsers[msg.sender], \"User not registered\");\r\n        require(_fileId > 0 && _fileId <= fileCount, \"Invalid file ID\");\r\n        return files[_fileId];\r\n    }\r\n\r\n    // Get all files uploaded by a specific user\r\n    function getFilesByUploader(\r\n        address _uploader\r\n    ) public view returns (File[] memory) {\r\n        File[] memory userFiles = new File[](fileCount);\r\n        uint256 counter = 0;\r\n        for (uint256 i = 1; i <= fileCount; i++) {\r\n            if (files[i].uploader == _uploader) {\r\n                userFiles[counter] = files[i];\r\n                counter++;\r\n            }\r\n        }\r\n        return userFiles;\r\n    }\r\n}\r\n",
  "sourcePath": "C:\\Users\\Dell\\Desktop\\Blockchain Project\\contracts\\FileSharing.sol",
  "compiler": {
    "name": "solc",
    "version": "0.8.21+commit.d9974bed.Emscripten.clang"
  },
  "schemaVersion": "3.4.16",
  "updatedAt": "2024-05-05T06:57:57.993Z",
  "networkType": "ethereum",
  "devdoc": {
    "kind": "dev",
    "methods": {},
    "version": 1
  },
  "userdoc": {
    "kind": "user",
    "methods": {},
    "version": 1
  }
}