{
  "contractName": "FileSharing",
  "abi": [
    {
      "anonymous": false,
      "inputs": [
        {
          "indexed": true,
          "internalType": "address",
          "name": "uploader",
          "type": "address"
        },
        {
          "indexed": true,
          "internalType": "uint256",
          "name": "fileId",
          "type": "uint256"
        }
      ],
      "name": "FileUploaded",
      "type": "event"
    },
    {
      "anonymous": false,
      "inputs": [
        {
          "indexed": true,
          "internalType": "address",
          "name": "user",
          "type": "address"
        }
      ],
      "name": "UserRegistered",
      "type": "event"
    },
    {
      "inputs": [],
      "name": "fileCount",
      "outputs": [
        {
          "internalType": "uint256",
          "name": "",
          "type": "uint256"
        }
      ],
      "stateMutability": "view",
      "type": "function",
      "constant": true
    },
    {
      "inputs": [
        {
          "internalType": "uint256",
          "name": "",
          "type": "uint256"
        }
      ],
      "name": "files",
      "outputs": [
        {
          "internalType": "string",
          "name": "name",
          "type": "string"
        },
        {
          "internalType": "string",
          "name": "hash",
          "type": "string"
        },
        {
          "internalType": "address",
          "name": "uploader",
          "type": "address"
        },
        {
          "internalType": "uint256",
          "name": "timestamp",
          "type": "uint256"
        }
      ],
      "stateMutability": "view",
      "type": "function",
      "constant": true
    },
    {
      "inputs": [
        {
          "internalType": "address",
          "name": "",
          "type": "address"
        }
      ],
      "name": "registeredUsers",
      "outputs": [
        {
          "internalType": "bool",
          "name": "",
          "type": "bool"
        }
      ],
      "stateMutability": "view",
      "type": "function",
      "constant": true
    },
    {
      "inputs": [],
      "name": "signup",
      "outputs": [],
      "stateMutability": "nonpayable",
      "type": "function"
    },
    {
      "inputs": [
        {
          "internalType": "string",
          "name": "_name",
          "type": "string"
        },
        {
          "internalType": "string",
          "name": "_hash",
          "type": "string"
        }
      ],
      "name": "uploadFile",
      "outputs": [],
      "stateMutability": "nonpayable",
      "type": "function"
    },
    {
      "inputs": [
        {
          "internalType": "uint256",
          "name": "_fileId",
          "type": "uint256"
        }
      ],
      "name": "downloadFile",
      "outputs": [
        {
          "components": [
            {
              "internalType": "string",
              "name": "name",
              "type": "string"
            },
            {
              "internalType": "string",
              "name": "hash",
              "type": "string"
            },
            {
              "internalType": "address",
              "name": "uploader",
              "type": "address"
            },
            {
              "internalType": "uint256",
              "name": "timestamp",
              "type": "uint256"
            }
          ],
          "internalType": "struct FileSharing.File",
          "name": "",
          "type": "tuple"
        }
      ],
      "stateMutability": "view",
      "type": "function",
      "constant": true
    },
    {
      "inputs": [
        {
          "internalType": "address",
          "name": "_uploader",
          "type": "address"
        }
      ],
      "name": "searchFilesByUploader",
      "outputs": [
        {
          "components": [
            {
              "internalType": "string",
              "name": "name",
              "type": "string"
            },
            {
              "internalType": "string",
              "name": "hash",
              "type": "string"
            },
            {
              "internalType": "address",
              "name": "uploader",
              "type": "address"
            },
            {
              "internalType": "uint256",
              "name": "timestamp",
              "type": "uint256"
            }
          ],
          "internalType": "struct FileSharing.File[]",
          "name": "",
          "type": "tuple[]"
        }
      ],
      "stateMutability": "view",
      "type": "function",
      "constant": true
    }
  ],
  "bytecode": "0x60806040525f600255348015610013575f80fd5b5061156e806100215f395ff3fe608060405234801561000f575f80fd5b506004361061007b575f3560e01c8063983a2dbd11610059578063983a2dbd146100fd578063996d50bf1461012d578063b7bc0f7314610149578063f4c714b4146101535761007b565b80630e50cee51461007f57806343953519146100af57806393df2738146100cd575b5f80fd5b61009960048036038101906100949190610b5f565b610186565b6040516100a69190610ba4565b60405180910390f35b6100b76101a2565b6040516100c49190610bd5565b60405180910390f35b6100e760048036038101906100e29190610c18565b6101a8565b6040516100f49190610d52565b60405180910390f35b61011760048036038101906101129190610b5f565b6103d9565b6040516101249190610e94565b60405180910390f35b61014760048036038101906101429190610fe0565b61068f565b005b61015161083f565b005b61016d60048036038101906101689190610c18565b610961565b60405161017d94939291906110ad565b60405180910390f35b5f602052805f5260405f205f915054906101000a900460ff1681565b60025481565b6101b0610ab8565b5f803373ffffffffffffffffffffffffffffffffffffffff1673ffffffffffffffffffffffffffffffffffffffff1681526020019081526020015f205f9054906101000a900460ff16610238576040517f08c379a000000000000000000000000000000000000000000000000000000000815260040161022f90611148565b60405180910390fd5b60015f8381526020019081526020015f206040518060800160405290815f8201805461026390611193565b80601f016020809104026020016040519081016040528092919081815260200182805461028f90611193565b80156102da5780601f106102b1576101008083540402835291602001916102da565b820191905f5260205f20905b8154815290600101906020018083116102bd57829003601f168201915b505050505081526020016001820180546102f390611193565b80601f016020809104026020016040519081016040528092919081815260200182805461031f90611193565b801561036a5780601f106103415761010080835404028352916020019161036a565b820191905f5260205f20905b81548152906001019060200180831161034d57829003601f168201915b50505050508152602001600282015f9054906101000a900473ffffffffffffffffffffffffffffffffffffffff1673ffffffffffffffffffffffffffffffffffffffff1673ffffffffffffffffffffffffffffffffffffffff1681526020016003820154815250509050919050565b60605f60025467ffffffffffffffff8111156103f8576103f7610ebc565b5b60405190808252806020026020018201604052801561043157816020015b61041e610ab8565b8152602001906001900390816104165790505b5090505f80600190505b6002548111610684578473ffffffffffffffffffffffffffffffffffffffff1660015f8381526020019081526020015f206002015f9054906101000a900473ffffffffffffffffffffffffffffffffffffffff1673ffffffffffffffffffffffffffffffffffffffff16036106715760015f8281526020019081526020015f206040518060800160405290815f820180546104d590611193565b80601f016020809104026020016040519081016040528092919081815260200182805461050190611193565b801561054c5780601f106105235761010080835404028352916020019161054c565b820191905f5260205f20905b81548152906001019060200180831161052f57829003601f168201915b5050505050815260200160018201805461056590611193565b80601f016020809104026020016040519081016040528092919081815260200182805461059190611193565b80156105dc5780601f106105b3576101008083540402835291602001916105dc565b820191905f5260205f20905b8154815290600101906020018083116105bf57829003601f168201915b50505050508152602001600282015f9054906101000a900473ffffffffffffffffffffffffffffffffffffffff1673ffffffffffffffffffffffffffffffffffffffff1673ffffffffffffffffffffffffffffffffffffffff168152602001600382015481525050838381518110610657576106566111c3565b5b6020026020010181905250818061066d9061121d565b9250505b808061067c9061121d565b91505061043b565b508192505050919050565b5f803373ffffffffffffffffffffffffffffffffffffffff1673ffffffffffffffffffffffffffffffffffffffff1681526020019081526020015f205f9054906101000a900460ff16610717576040517f08c379a000000000000000000000000000000000000000000000000000000000815260040161070e90611148565b60405180910390fd5b60025f8154809291906107299061121d565b919050555060405180608001604052808381526020018281526020013373ffffffffffffffffffffffffffffffffffffffff1681526020014281525060015f60025481526020019081526020015f205f820151815f01908161078b9190611401565b5060208201518160010190816107a19190611401565b506040820151816002015f6101000a81548173ffffffffffffffffffffffffffffffffffffffff021916908373ffffffffffffffffffffffffffffffffffffffff160217905550606082015181600301559050506002543373ffffffffffffffffffffffffffffffffffffffff167f52a5e47232258119382e5fc7b7f1aeee2246eda849f54f32d8e7a48dbf33711360405160405180910390a35050565b5f803373ffffffffffffffffffffffffffffffffffffffff1673ffffffffffffffffffffffffffffffffffffffff1681526020019081526020015f205f9054906101000a900460ff16156108c8576040517f08c379a00000000000000000000000000000000000000000000000000000000081526004016108bf9061151a565b60405180910390fd5b60015f803373ffffffffffffffffffffffffffffffffffffffff1673ffffffffffffffffffffffffffffffffffffffff1681526020019081526020015f205f6101000a81548160ff0219169083151502179055503373ffffffffffffffffffffffffffffffffffffffff167f54db7a5cb4735e1aac1f53db512d3390390bb6637bd30ad4bf9fc98667d9b9b960405160405180910390a2565b6001602052805f5260405f205f91509050805f01805461098090611193565b80601f01602080910402602001604051908101604052809291908181526020018280546109ac90611193565b80156109f75780601f106109ce576101008083540402835291602001916109f7565b820191905f5260205f20905b8154815290600101906020018083116109da57829003601f168201915b505050505090806001018054610a0c90611193565b80601f0160208091040260200160405190810160405280929190818152602001828054610a3890611193565b8015610a835780601f10610a5a57610100808354040283529160200191610a83565b820191905f5260205f20905b815481529060010190602001808311610a6657829003601f168201915b505050505090806002015f9054906101000a900473ffffffffffffffffffffffffffffffffffffffff16908060030154905084565b604051806080016040528060608152602001606081526020015f73ffffffffffffffffffffffffffffffffffffffff1681526020015f81525090565b5f604051905090565b5f80fd5b5f80fd5b5f73ffffffffffffffffffffffffffffffffffffffff82169050919050565b5f610b2e82610b05565b9050919050565b610b3e81610b24565b8114610b48575f80fd5b50565b5f81359050610b5981610b35565b92915050565b5f60208284031215610b7457610b73610afd565b5b5f610b8184828501610b4b565b91505092915050565b5f8115159050919050565b610b9e81610b8a565b82525050565b5f602082019050610bb75f830184610b95565b92915050565b5f819050919050565b610bcf81610bbd565b82525050565b5f602082019050610be85f830184610bc6565b92915050565b610bf781610bbd565b8114610c01575f80fd5b50565b5f81359050610c1281610bee565b92915050565b5f60208284031215610c2d57610c2c610afd565b5b5f610c3a84828501610c04565b91505092915050565b5f81519050919050565b5f82825260208201905092915050565b5f5b83811015610c7a578082015181840152602081019050610c5f565b5f8484015250505050565b5f601f19601f8301169050919050565b5f610c9f82610c43565b610ca98185610c4d565b9350610cb9818560208601610c5d565b610cc281610c85565b840191505092915050565b610cd681610b24565b82525050565b610ce581610bbd565b82525050565b5f608083015f8301518482035f860152610d058282610c95565b91505060208301518482036020860152610d1f8282610c95565b9150506040830151610d346040860182610ccd565b506060830151610d476060860182610cdc565b508091505092915050565b5f6020820190508181035f830152610d6a8184610ceb565b905092915050565b5f81519050919050565b5f82825260208201905092915050565b5f819050602082019050919050565b5f608083015f8301518482035f860152610db58282610c95565b91505060208301518482036020860152610dcf8282610c95565b9150506040830151610de46040860182610ccd565b506060830151610df76060860182610cdc565b508091505092915050565b5f610e0d8383610d9b565b905092915050565b5f602082019050919050565b5f610e2b82610d72565b610e358185610d7c565b935083602082028501610e4785610d8c565b805f5b85811015610e825784840389528151610e638582610e02565b9450610e6e83610e15565b925060208a01995050600181019050610e4a565b50829750879550505050505092915050565b5f6020820190508181035f830152610eac8184610e21565b905092915050565b5f80fd5b5f80fd5b7f4e487b71000000000000000000000000000000000000000000000000000000005f52604160045260245ffd5b610ef282610c85565b810181811067ffffffffffffffff82111715610f1157610f10610ebc565b5b80604052505050565b5f610f23610af4565b9050610f2f8282610ee9565b919050565b5f67ffffffffffffffff821115610f4e57610f4d610ebc565b5b610f5782610c85565b9050602081019050919050565b828183375f83830152505050565b5f610f84610f7f84610f34565b610f1a565b905082815260208101848484011115610fa057610f9f610eb8565b5b610fab848285610f64565b509392505050565b5f82601f830112610fc757610fc6610eb4565b5b8135610fd7848260208601610f72565b91505092915050565b5f8060408385031215610ff657610ff5610afd565b5b5f83013567ffffffffffffffff81111561101357611012610b01565b5b61101f85828601610fb3565b925050602083013567ffffffffffffffff8111156110405761103f610b01565b5b61104c85828601610fb3565b9150509250929050565b5f82825260208201905092915050565b5f61107082610c43565b61107a8185611056565b935061108a818560208601610c5d565b61109381610c85565b840191505092915050565b6110a781610b24565b82525050565b5f6080820190508181035f8301526110c58187611066565b905081810360208301526110d98186611066565b90506110e8604083018561109e565b6110f56060830184610bc6565b95945050505050565b7f55736572206e6f742072656769737465726564000000000000000000000000005f82015250565b5f611132601383611056565b915061113d826110fe565b602082019050919050565b5f6020820190508181035f83015261115f81611126565b9050919050565b7f4e487b71000000000000000000000000000000000000000000000000000000005f52602260045260245ffd5b5f60028204905060018216806111aa57607f821691505b6020821081036111bd576111bc611166565b5b50919050565b7f4e487b71000000000000000000000000000000000000000000000000000000005f52603260045260245ffd5b7f4e487b71000000000000000000000000000000000000000000000000000000005f52601160045260245ffd5b5f61122782610bbd565b91507fffffffffffffffffffffffffffffffffffffffffffffffffffffffffffffffff8203611259576112586111f0565b5b600182019050919050565b5f819050815f5260205f209050919050565b5f6020601f8301049050919050565b5f82821b905092915050565b5f600883026112c07fffffffffffffffffffffffffffffffffffffffffffffffffffffffffffffffff82611285565b6112ca8683611285565b95508019841693508086168417925050509392505050565b5f819050919050565b5f6113056113006112fb84610bbd565b6112e2565b610bbd565b9050919050565b5f819050919050565b61131e836112eb565b61133261132a8261130c565b848454611291565b825550505050565b5f90565b61134661133a565b611351818484611315565b505050565b5b81811015611374576113695f8261133e565b600181019050611357565b5050565b601f8211156113b95761138a81611264565b61139384611276565b810160208510156113a2578190505b6113b66113ae85611276565b830182611356565b50505b505050565b5f82821c905092915050565b5f6113d95f19846008026113be565b1980831691505092915050565b5f6113f183836113ca565b9150826002028217905092915050565b61140a82610c43565b67ffffffffffffffff81111561142357611422610ebc565b5b61142d8254611193565b611438828285611378565b5f60209050601f831160018114611469575f8415611457578287015190505b61146185826113e6565b8655506114c8565b601f19841661147786611264565b5f5b8281101561149e57848901518255600182019150602085019450602081019050611479565b868310156114bb57848901516114b7601f8916826113ca565b8355505b6001600288020188555050505b505050505050565b7f5573657220616c726561647920726567697374657265640000000000000000005f82015250565b5f611504601783611056565b915061150f826114d0565b602082019050919050565b5f6020820190508181035f830152611531816114f8565b905091905056fea264697066735822122067b2dfb75775099c2e3667f4949e596238c65654c395f6f8469a2a7a3bcdfff564736f6c63430008150033",
  "immutableReferences": {},
  "source": "// SPDX-License-Identifier: MIT\r\npragma solidity ^0.8.0;\r\n\r\ncontract FileSharing {\r\n    struct File {\r\n        string name;\r\n        string hash; // Hash on IPFS\r\n        address uploader;\r\n        uint256 timestamp;\r\n    }\r\n\r\n    mapping(address => bool) public registeredUsers;\r\n    mapping(uint256 => File) public files;\r\n    uint256 public fileCount = 0;\r\n\r\n    event UserRegistered(address indexed user);\r\n    event FileUploaded(address indexed uploader, uint256 indexed fileId);\r\n\r\n    function signup() public {\r\n        require(!registeredUsers[msg.sender], \"User already registered\");\r\n        registeredUsers[msg.sender] = true;\r\n        emit UserRegistered(msg.sender);\r\n    }\r\n\r\n    function uploadFile(string memory _name, string memory _hash) public {\r\n        require(registeredUsers[msg.sender], \"User not registered\");\r\n        fileCount++;\r\n        files[fileCount] = File(_name, _hash, msg.sender, block.timestamp);\r\n        emit FileUploaded(msg.sender, fileCount);\r\n    }\r\n\r\n    function downloadFile(uint256 _fileId) public view returns (File memory) {\r\n        require(registeredUsers[msg.sender], \"User not registered\");\r\n        return files[_fileId];\r\n    }\r\n\r\n    function searchFilesByUploader(\r\n        address _uploader\r\n    ) public view returns (File[] memory) {\r\n        File[] memory userFiles = new File[](fileCount);\r\n        uint256 counter = 0;\r\n        for (uint256 i = 1; i <= fileCount; i++) {\r\n            if (files[i].uploader == _uploader) {\r\n                userFiles[counter] = files[i];\r\n                counter++;\r\n            }\r\n        }\r\n        return userFiles;\r\n    }\r\n}\r\n",
  "sourcePath": "C:\\Users\\Dell\\Desktop\\Blockchain Project\\contracts\\FileSharing.sol",
  "compiler": {
    "name": "solc",
    "version": "0.8.21+commit.d9974bed.Emscripten.clang"
  },
  "schemaVersion": "3.4.16",
  "updatedAt": "2024-04-28T11:31:30.941Z",
  "networkType": "ethereum",
  "devdoc": {
    "kind": "dev",
    "methods": {},
    "version": 1
  },
  "userdoc": {
    "kind": "user",
    "methods": {},
    "version": 1
  }
}